:020000040800F2
:100000000004002013020008812300088323000855
:10001000872300088B2300088F23000800000000BE
:100020000000000000000000000000009323000812
:10003000952300080000000097230008992300087A
:1000400033020008330200083302000833020008BC
:1000500033020008330200083302000833020008AC
:10006000330200083302000833020008330200089C
:10007000330200083302000833020008330200088C
:10008000330200083302000833020008330200087C
:10009000330200083302000833020008330200086C
:1000A000330200083302000833020008330200085C
:1000B0009B230008330200083302000833020008C3
:1000C000330200083302000833020008330200083C
:1000D000330200083302000833020008330200082C
:1000E000330200083302000833020008330200081C
:1000F000330200083302000833020008330200080C
:1001000033020008330200083302000833020008FB
:1001100033020008330200083302000833020008EB
:1001200033020008330200083302000833020008DB
:1001300000F002F800F05CF80AA090E8000C82449D
:100140008344AAF10107DA4501D100F051F8AFF27A
:10015000090EBAE80F0013F0010F18BFFB1A43F0A5
:100160000103184730480000504800000A444FF08F
:10017000000C10F8013B13F0070408BF10F8014B06
:100180001D1108BF10F8015B641E05D010F8016B4B
:10019000641E01F8016BF9D113F0080F1EBF10F8AF
:1001A000014BAD1C0C1B09D16D1E58BF01F801CBD2
:1001B000FAD505E014F8016B01F8016B6D1EF9D555
:1001C0009142D6D37047000000230024002500266A
:1001D000103A28BF78C1FBD8520728BF30C148BFAA
:1001E0000B6070471FB504F054FA1FBD10B510BD69
:1001F00004F014FA1146FFF7F5FF01F095FB04F047
:1002000032FA03B4FFF7F2FF03BC04F03BFA00003C
:1002100070470B4880470B4981F308880A4800471C
:10022000FEE7FEE7FEE7FEE7FEE7FEE7FEE7FEE7A6
:10023000FEE7FEE705480649044A064B7047000002
:1002400011020008A017002031010008A0150020AD
:10025000A0170020A01500201CB50121102002F0DD
:1002600043FA4FF4E050ADF8040001208DF8060089
:1002700048208DF8070001A9FE4801F053FF012135
:10028000202002F031FA0420ADF8000001208DF8A2
:10029000020048208DF803006946F74801F042FF4C
:1002A0001CBD10B5F548007801287DD1F348407891
:1002B000012818D10020F149487008460079401CF7
:1002C00008710846C079012806D10846007910282F
:1002D00009DB0D20087106E0E84800790D2802DBF3
:1002E0000620E6490871E5488078012803D0E348F4
:1002F000C0780128D9D1E1480079062818D1DF4813
:100300008078DE49C978401ADC4949790844DB49DC
:10031000487108464079042802DB01204871DEE07C
:10032000D64840790028FADC0320D4494871D6E049
:10033000D248007907287CDBD04800790D2878DA8C
:10034000CE480079C01FCE490870CC488078CB4990
:10035000C978401ACB490968C94A127851F8221065
:100360000844C8490968C64A127841F82200C548BD
:1003700000680068B0F5AF7F04DB4FF4AF70C1498F
:1003800009680860BF4800680068962803DC96206A
:10039000BC4909680860BB4800684068B0F5AF7F99
:1003A00006DB4FF4AF7000E09FE0B6490968486093
:1003B000B44800684068962803DC9620B149096873
:1003C0004860B048006880688C2803DB8C20AD4909
:1003D00009688860AB4800688068002803DC00205A
:1003E000A84909688860A7480068C068B0F5FA7F26
:1003F00004DB4FF4FA70A3490968C860A14800689B
:10040000C068B0F5CD7F04DC4FF4CD709D4909681C
:10041000C8609C48006800689A4909684968884231
:100420005DDB98480068006896490968486056E0B6
:10043000FFE7924800790D2851DB90480079102899
:100440004DDA8E48C079012849D18C4800790D38A1
:100450008B490870894880788849C978401A8A4948
:100460000968874A127851F82210014486480068CA
:10047000834A127840F8221081480078400083496E
:1004800051F8200040F6391148437D490978490068
:10049000491C7E4A52F82110B0FBF1F0A0F625204D
:1004A0007B49774A127851F8221001447948744AFE
:1004B000127840F822107249097850F821007649E4
:1004C0006F4A127841F8220071486D49097850F856
:1004D0002100643071496A4A127841F822000020F4
:1004E00066498870C87001F021F910BD70B50646E4
:1004F0000C46304601F0B0FE2040A0427ED0684855
:1005000002F04DFF304601F0A7FE2040A04276D019
:10051000304601F0A1FE00EA0405B5F5406F09D0B0
:10052000B5F5805F23D0B5F5A05F0CD0B5F5C05F01
:1005300026D112E001205149487000208870C8700F
:100540005849087025E000204C4948700120887007
:100550000020C870534908701BE0002047494870CC
:1005600088700120C87000204E49087011E00020FA
:10057000424948708870C87001204A49087008E0F4
:1005800000203E4948708870C870C871454908709D
:1005900000BF00BF3948407801280BD03748807829
:1005A000012807D03548C078012803D03D4800789D
:1005B000012810D1314840783B4908702F48807895
:1005C0003A4908702D48C0783949087000203949E7
:1005D00008703949086081E03348007801280BD061
:1005E00032480078012807D031480078012803D02C
:1005F0002C48007801286BD12F4801E079E076E0A3
:10060000006814282BD301202A49087000202A49A9
:1006100008601A48007824490978224A127811445F
:1006200008441649087008460078012807D11D487B
:100630000078012803D10D2008710120C8710F48EE
:100640000078022806DB00200C490870052008719C
:100650000020C8710020144908701249087015481C
:100660000078012834D11548006848B30F48007855
:10067000024926E000100140001401400000002063
:1006800025000020280000202C000020280D00203C
:10069000B0030020900200209C020020D401002022
:1006A000400D030024000020210000202200002033
:1006B0002300002020000020240200202802002027
:1006C00006E0887032480078C87000203149086020
:1006D000FFF7E7FD3049087900F0FDFA304601F0F8
:1006E000BBFD2040A0427FF477AF002070BD012009
:1006F000FCE70120FAE710B528480068032812D16A
:100700000821274801F09FFD01280CD144F6206004
:1007100002F045FE0821224801F095FD012802D192
:1007200002201D49887104211E4801F08CFD10BB78
:1007300044F6206002F033FE04211A4801F083FDE4
:1007400090B915488079401C134988710846807912
:10075000022802D100201449C8710F48807903286B
:1007600002DB01200C49887100BF04210D4801F013
:100770006AFD0028F9D008488079012807D14FF494
:10078000E0510A48FFF7B2FE08B9FFF78AFD10BD35
:10079000230000202802002000000020E8010020A3
:1007A0000008014000140140BC010020001001407D
:1007B00010B5FE484079401EFD4951F82020012126
:1007C000042002F0CDFFFB4801230621026802202D
:1007D00003F001F9F74800680A2806D2202002F049
:1007E00016FF202002F013FF06E0F248006864289C
:1007F00002D2202002F00BFFEE48012306214268BE
:10080000032003F0E8F8EB4840680A2806D22020CD
:1008100002F0FDFE202002F0FAFE06E0E548406806
:10082000642802D2202002F0F2FEE24801230621D1
:100830008268184603F0CFF8DE4880680A2806D29E
:10084000202002F0E4FE202002F0E1FE06E0D9487C
:100850008068642802D2202002F0D9FE10BD10B5B5
:10086000D2484079401ED24951F82020042102206C
:1008700002F076FF0221032002F032FF1E2002F078
:10088000C6FE1F2002F0C3FE10BD10B5C748007998
:100890000D2820DBC54800790D38C74951F82020C4
:1008A00001230621022003F096F8C04800790D3894
:1008B000C24951F8202001230621032003F08BF8C0
:1008C0000221042002F00CFF1E2002F0A0FE1F20D7
:1008D00002F09DFE14E0B5480079C01FB84951F8F8
:1008E000202001230621022003F075F802210320B5
:1008F00002F0F6FE1E2002F08AFE1F2002F087FEA4
:1009000010BD10B5AF48C079002870DD03F032F992
:100910000120AD4908710020C872AA48007801285A
:1009200006D1AA4801210268022002F019FF40E026
:10093000A4484078012806D1A44801214268022039
:1009400002F00EFF35E09F488078012806D19F48CD
:1009500001218268022002F003FF2AE09948C07852
:10096000012806D199480121C268022002F0F8FE50
:100970001FE094480079012806D1944801210269BA
:10098000022002F0EDFE14E08E484079012806D1E5
:100990008E4801214269022002F0E2FE09E0894806
:1009A0008079012805D1894801218269022002F05D
:1009B000D7FE8448C07A012805D184480121C26944
:1009C000022002F0CDFE7F48807A012805D17F48C1
:1009D0000121026A022002F0C3FE7A48407A01280F
:1009E00005D17A480121426A022002F0B9FE10BD09
:1009F00010B5774C01210846226802F0B1FE0121B2
:100A00000220626802F0ACFE01210320A26802F01D
:100A1000A7FE01210420E26802F0A2FE10BD70B51D
:100A200000206C4908706748C07900287ED16A4868
:100A30000068012835D1664C283408705B488079FD
:100A4000022802D05948807998B9012108462268C5
:100A500002F086FE01210220626802F081FE01217F
:100A60000320A26802F07CFE01210420E26802F06B
:100A700077FE0DE000204D49087048708870C870FE
:100A800008710A2055490870FFF735FE00F0BBF9E0
:100A9000464880790228EDD0444880790028E9D082
:100AA000A6E04D48006802284AD1494C3C34012058
:100AB000484908703D488079022803D03B48807936
:100AC0000028EDD101210846226802F049FE0121EB
:100AD0000220626802F044FE01210320A26802F0B5
:100AE0003FFE01210420E26802F03AFE00203C496A
:100AF000086020E03A4800680A21B0FBF1F0C0F13C
:100B00000A052A460321084602F093FE344800688D
:100B10000A2802D9202002F07AFD00F074F90020A2
:100B20002249087048708870C87000E083E008713E
:100B30000A202A4908702A4800686428DAD357E056
:100B400025480068032853D1214C50340120214905
:100B5000087016488079022802D01448807918BBA2
:100B600001210846226802F0FBFD01210220626893
:100B700002F0F6FD01210320A26802F0F1FD01213F
:100B80000420E26802F0ECFD00F03DF90020074986
:100B9000087048708870C87008710A200F49087082
:100BA00000BF08210F481FE022E0000000000020E5
:100BB0003C0000209C02002090020020D401002074
:100BC00008000020BC010020740200204800002022
:100BD00070000020B0010020E80100203400002057
:100BE000340200200008014001F02DFB0128D8D07C
:100BF0006148007801281ED100205F490870052057
:100C00005E4908710120887100205D49C87101208A
:100C100008700020487001200872002088700120B0
:100C200048720020C87001208872002008710120DD
:100C3000C87200F0A9FD70BD10B5524C5248007842
:100C4000B0B901205049087001210846226802F01D
:100C500087FD01210220626802F082FD012103204C
:100C6000A26802F07DFD01210420E26802F078FD17
:100C70004648012306214268032002F0ACFE4348A7
:100C800040680A2806D2202002F0C1FC202002F091
:100C9000BEFC06E03D484068642802D2202002F0F5
:100CA000B6FC3A48012306218268032002F093FE35
:100CB000364880680A2806D2202002F0A8FC2020AE
:100CC00002F0A5FC06E031488068642802D22020AA
:100CD00002F09DFC10BD70B5054605EB8500294965
:100CE000143901EB80042A48C079002839D12948F9
:100CF000007801280CD10020264908700E222649D0
:100D00001F4803F011FC00201D4908710120C87222
:100D10001A48807901281BD120480078854215D0D7
:100D20001E48057001210846226802F019FD0121C4
:100D30000220626802F014FD01210320A26802F083
:100D40000FFD01210420E26802F00AFD20698047BE
:100D50000A488079022802D00848807908B9FFF74C
:100D60005EFE0B48C079002804DDFFF7CAFD0120B4
:100D70000849087070BD0000B0010020000000208C
:100D80007402002084000020B80100209C02002092
:100D9000BC01002035000020820200203400002029
:100DA0000EB50121142001F09FFC4FF47070ADF8D6
:100DB000080003208DF80A0048208DF80B0002A9D6
:100DC000C54801F0AFF90F20ADF8040003208DF8FD
:100DD000060048208DF8070001A9C04801F0A2F9DB
:100DE0000121042001F080FC4FF4FE60ADF800000A
:100DF00003208DF8020010208DF803006946B748E3
:100E000001F090F90EBD4FF4FE60B4491031086056
:100E100070474FF4FE60B14914310860704710B557
:100E2000AE4801F019FA10F0070F39D1AA4801F0C5
:100E300013FA10F4707F33D1A948C07AA849497ACF
:100E40000844A749897A40182AD1A64802F0A7FA8F
:100E5000A24801F001FA10F0070F20D19E4801F0DE
:100E6000FBF910F4707FF8D19D48C07A9C49497A0B
:100E700008449B49897A4018EFD19949C871087094
:100E800048708870C8700871487188710846007A87
:100E90000028E2D1012008720A2093490870B6E0C8
:100EA000904802F07CFA8D4801F0D6F910F0070F57
:100EB0000ED1894801F0D0F910F4707F08D188482C
:100EC000C07A8749497A08448549897A4018E6D02A
:100ED00001208349C871002008728448007840B915
:100EE0000120824908700E228149824803F01CFBD0
:100EF0008DE04021784801F0A6F9012812D1784907
:100F000008707B49C8710020087001200872002019
:100F100048700120487200208870012088720020EB
:100F2000C87074E080216C4801F08DF9012808D167
:100F30006B4948706E494872002088706849087093
:100F400065E04FF48071644801F07DF901280CD10F
:100F5000634988706649C871002008700120487292
:100F6000002088705E49487051E04FF400715A4883
:100F700001F069F901280CD15949C87000205C4979
:100F8000C871012008704872002088705449887028
:100F90003DE00121514801F056F901280CD150499A
:100FA000087100205249C871012008704872002061
:100FB00088704B49C8702AE00221484801F043F983
:100FC000012808D1464948714949C8710020087074
:100FD000434908711BE00421404801F034F901281D
:100FE0000CD13F4988714249C87100200870012026
:100FF0004872002088703A49487108E0002038495A
:10100000087048708870C87008714871887110BD88
:1010100010B5FFF704FF3648407A012808D136485A
:10102000007810B900203549086001203249087065
:101030002F488078012812D100202F4908702F48AE
:101040000068B0F5966F02D20020294988702B48BD
:101050000068B0F5966F02D30120254988702448B6
:10106000007800012249497840EA411020498978F6
:1010700040EA81101E49C97840EAC1101C49C97A6A
:1010800040EA01201A49497940EA41201849897902
:1010900040EA81201149143108601548C0790001E7
:1010A0001349097A40EA41101149497A40EA81100E
:1010B0000F49897A40EAC1100D49097940EA0120B7
:1010C0000B49097B40EA41200949497B40EA8120DC
:1010D00002491031086010BD0010014000080140B5
:1010E000BC010020400D030034000020350000202A
:1010F0007402002082020020C80100203802002073
:1011000008B50121102001F0EFFA3F20ADF80000F2
:1011100000208DF803006946FA4801F003F808BD85
:1011200000B585B00121480201F0DEFA00200090F0
:1011300001208DF804008DF8050000200290039036
:1011400006208DF810006946EF4800F07AFC052370
:1011500001220A21EC4800F00CFD052302220B219C
:10116000E94800F006FD052303220C21E64800F0C3
:1011700000FD052304220D21E34800F0FAFC0523BD
:101180001A460E21E04800F0F4FC052306220F2148
:10119000DD4800F0EEFC0121DB4800F089FC012174
:1011A000D94800F042FD0121D74800F076FCD6482E
:1011B00000F095FC00BFD44800F096FC0028FAD15E
:1011C000D14800F09BFC00BFCF4800F09CFC0028F9
:1011D000FAD10121CC4800F0A0FC05B000BD00B55B
:1011E0008BB00121084601F072FAC84800F014FEE5
:1011F000C5484C300090C6480190002002904FF442
:101200001670039000200490802005904000069006
:1012100080000790202008900002099000200A908A
:101220006946BA4800F091FE0121B84800F0B8FEC6
:101230000BB000BD10B5FFF763FFFFF771FFFFF7BD
:10124000CEFF02F022FE10BD70B50020A0E0002409
:10125000B04D2C60002244E002EB4204AC4D05EBA3
:10126000840434F8104002EB4205AB4E06EB8505D2
:1012700035F81050641B1E2C10DC02EB420435467E
:1012800005EB840434F8104002EB4205A04E06EB57
:10129000850535F81050641B1E2C0DDD02EB420451
:1012A0009B4D05EB840434F8104002EB42059A4E46
:1012B00006EB850525F8104002EB4204964D05EB40
:1012C000840434F81040934D2D682C44914D2C60CB
:1012D0002C4624686425B4FBF5F4904D25F81040A5
:1012E000521C642AB8D38E4C2478A4B900230AE097
:1012F0008A4C34F8104000EB80058A4E06EBC50599
:1013000045F823405B1C0A2BF2D3844C34F8104080
:10131000854D45F82040824C2478012C37D17F4CF4
:1013200034F8104000EB80057E4E06EBC5057F4E7D
:1013300056F8206045F826407C4C54F82040641C48
:101340007A4D45F820402C4654F820400A2C02D112
:10135000002445F8204000230EE000EB8004714D8E
:1013600005EBC40454F823406F4D55F820502C442D
:101370006D4D45F820405B1C0A2BEED36A4C54F8A7
:1013800020400A25B4FBF5F4674D45F82040401C89
:101390000628FFF45CAF664C2479052C07D14FF486
:1013A000B864614D6C60241FEC60641C6C610021AA
:1013B00069E04C005C4D55F8244040F639156C430B
:1013C0004D006D1C584E56F82550B4FBF5F4A4F6AC
:1013D0002524584D55F821502C44574D45F82140AF
:1013E0002C4654F82150554CE468641DA54205D3A1
:1013F000524CE468641D504D45F821404E4C54F861
:1014000021400F2C03D80F244B4D45F82140444C6C
:1014100024782CB9484C54F82140494D45F82140D6
:10142000474C54F82150444C54F82140A41EA54286
:1014300008D3434C54F821503F4C54F82140A41C8D
:10144000A5421FD93E4C54F821503B4C54F8214042
:10145000641EA54206D23A4C54F82140641C384D13
:1014600045F82140364C54F82150334C54F8214073
:10147000641CA54206D9324C54F82140641E304DFC
:1014800045F82140491C032993D30124244D2C7095
:1014900070BD10B5FFF7D8FE2948806864282FD2A8
:1014A0001BE0FFF7D1FE26480068142804D801206D
:1014B0002449C8700020887221480068322808D961
:1014C00001202049C8700020887201200870002087
:1014D000C871FFF7B1FBFFF79BFD1948006864284E
:1014E000DFD31748006864280AD300201549C87064
:1014F00001208872002008700120C871FFF788FD64
:1015000010BD00000010014000240140080002400E
:10151000BC030020E00100206C0800201C0D00200E
:10152000D0010020A8020020280D002098030020F0
:1015300000000020B00300209002002008000020DE
:101540009C0200207402002010B5724800686428D4
:101550007DD3704800687049C968884205D86D48D5
:1015600040686D49C968884214D901206B49887266
:10157000C8716B48007838B90120694908700E229B
:101580006849694802F0D0FF01206649C87100200F
:10159000087002E00020614988725E4800685E4978
:1015A0008968884205D35B4840685B4989688842FE
:1015B00014D2012059494872C8715948007838B985
:1015C0000120574908700E225649574802F0ACFFD7
:1015D00001205449C8710020087002E000204F49E2
:1015E00048724C4880681E2805D34A4880684A499A
:1015F000C968884214D901204849C872C87148484E
:10160000007838B90120464908700E2245494648FD
:1016100002F08AFF01204349C8710020087002E0EF
:1016200000203E49C8723C49086900EBD0713A4A33
:101630001268A2EB6101374A1268914217D200206A
:101640003849C870012088723349086900E05FE0BA
:1016500000EBD071304A126802EB61012D4A12682A
:10166000914204D201202F498870002048722A49F3
:10167000086900EBD071284A1268A2EB6101254A83
:101680001268914216D900202649887001204872BC
:101690002149086900EBD0711F4A1268A2EB610171
:1016A00014391C4A1268914204D901201D49C8709E
:1016B0000020887217490A68496814318A420BD899
:1016C0001549486900EBD071134A526802EB610179
:1016D000104A5268914204D20120124948700020F9
:1016E00008720C490A6849680A318A4210D20A49CC
:1016F000486900EBD071084A5268A2EB6101054AC3
:101700005268914204D900200649487001200872AD
:1017100010BD00009C02002008000020BC01002039
:1017200035000020740200208202002010B52F48EE
:1017300040792F4908602F48006888602D4840682C
:10174000C8602C48806808612A48C06848612948F8
:101750000069886127484069C861274800680862B5
:1017600025484068486224488068886223480068A9
:10177000C86222484068086320488068486338226D
:101780001F4802F0BFFA10BD10B5382218491C4896
:1017900002F0A6FA16480068144948711448806897
:1017A000144908601248C0684860114800698860A0
:1017B0000F484069C8600E48806908610C48C069DC
:1017C00048610B48006A0C4908600948406A486053
:1017D0000748806A88600648C06A0849086004486B
:1017E000006B48600248406B886010BD000000201C
:1017F000E801002008000020B0030020D4010020F0
:1018000000F8030800210020434A126842F48032A5
:10181000414B1A6000BF404A126802F40030491C74
:1018200010B9B1F5A06FF6D13B4A126812F4003F2F
:1018300001D0012000E00020012843D1374A12687E
:1018400042F01002354B1A601A46126822F0030269
:101850001A601A46126842F002021A602E4A526852
:101860002D4B5A601A4652685A601A46526842F422
:1018700080625A601A46526822F47C125A601A46F4
:10188000526842F4E8125A601A46126842F08072B6
:101890001A6000BF204A126812F0007FFAD01E4A78
:1018A000526822F003021C4B5A601A46526842F0FA
:1018B00002025A6000BF184A526802F00C02082A5D
:1018C000F9D101E000BFFEE7704710B5FFF79AFFBE
:1018D00010BD10B51048006840F001000E490860C6
:1018E000084640680E4908400B49486008460068B1
:1018F0000C490840084908600846006820F4802028
:1019000008600846406820F4FE00486000208860B7
:10191000FFF7DBFF10BD0000001002400020024076
:101920000000FFF8FFFFF6FE2A4CFFF7D2FF2A481F
:1019300001F026FD02F05AFA02F07CFA0121084675
:1019400000F0DFFE0121880701F027FAFEF784FC92
:10195000FFF726FAFFF757FA02F03EF902F064F9B2
:10196000FFF768FCFFF74FFA00201C49086001E010
:10197000FFF73EF8194800683228F9D3A068401CE8
:101980000AD1E068401C07D12069401C04D160697D
:10199000401C01D1FFF7CAFEFFF7F6FEFFF779FD05
:1019A00016E0FEF7A8FE0E48006805280ED30D4885
:1019B0008079012803D1FFF747FCFFF7C5FD0949EE
:1019C0000879FFF788F9002005490860FFF720FB38
:1019D000E7E7000000F8030800A24A0430020020F4
:1019E0002C0200200000002010B50446F748201803
:1019F00006D0B0F5806F0DD0B0F5C05F1ED113E0FA
:101A00000121480200F08AFE00214FF4007000F02E
:101A100085FE14E00121880200F080FE00214FF4D1
:101A2000806000F07BFE0AE00121C80300F076FE32
:101A300000214FF4004000F071FE00E000BF00BF45
:101A400010BD30B50246002000235068E04C204015
:101A50000D790C6844EA0524204350609068DD4C01
:101A60002040D1E902542C434D7944EA45042043F7
:101A70009060D06A20F470000C7C641E1C43E3B2BA
:101A800040EA0350D06230BD002101600171417114
:101A90008160C16001210174704721B1826842F008
:101AA0000102826003E0826822F0010282607047D6
:101AB00021B1826842F48072826003E0826822F47D
:101AC00080728260704710B50023CBB21AB14468AF
:101AD0001C43446002E044689C43446010BD81683C
:101AE00041F0080181607047014600208A6812F0C9
:101AF000080F01D0012000E000207047816841F00C
:101B0000040181607047014600208A6812F0040FCA
:101B100001D0012000E00020704721B1826842F42A
:101B2000A002826003E0826822F4A0028260704713
:101B3000014600208A6812F4800F01D0012000E0E5
:101B40000020704710B50A4600210023416821F4A7
:101B50006041531E41EA4331416010BD21B14268EA
:101B600042F40062426003E0426822F40062426094
:101B70007047F0B504460D4600200021092D11DD07
:101B8000E068A5F10A0606EB4607072606FA07F104
:101B90008843A5F10A0606EB460603FA06F1084358
:101BA000E0600CE0206905EB4507072606FA07F11F
:101BB000884305EB450603FA06F108432061072A2E
:101BC0000FDA606B561E06EB86071F2606FA07F132
:101BD0008843561E06EB860605FA06F10843606345
:101BE00022E00D2A0FDA206BD61F06EB86071F2690
:101BF00006FA07F18843D61F06EB860605FA06F1BA
:101C00000843206310E0E06AA2F10D0606EB8607A8
:101C10001F2606FA07F18843A2F10D0606EB860699
:101C200005FA06F10843E062F0BD21B1826842F492
:101C30008012826003E0826822F480128260704722
:101C40000146C86C80B2704763480068704721B194
:101C5000426842F48062426003E0426822F480629B
:101C60004260704721B1426842F48052426003E012
:101C7000426822F48052426070470A46002181681F
:101C800021F4E04111438160704721B1826842F440
:101C90000042826003E0826822F400428260704762
:101CA00021B1826842F40212826003E0826822F469
:101CB000021282607047014600208A6812F4001FF9
:101CC00001D0012000E000207047F0B50446154621
:101CD000002000220026092911DDE068A1F10A0791
:101CE00007EB470C072707FA0CF29043A1F10A070C
:101CF00007EB470703FA07F21043E0600CE02069A6
:101D000001EB410C072707FA0CF2904301EB410766
:101D100003FA07F210432061A06BC0F30156EF1CD9
:101D200006F1010CA7EB0C0707EB870C1F2707FA3E
:101D30000CF29043EF1C06F1010CA7EB0C0707EB2C
:101D4000870701FA07F21043A063F0BD10B50A46F9
:101D500000210023816B21F44011531E41EA0351FD
:101D6000816310BD4250704702465018806A80B2AD
:101D700070470A4600214168184B194011434160E1
:101D800070474162826270470A460021416821F033
:101D90001F0111434160704740B10F494439096840
:101DA00041F400010C4A443A116007E00A49443901
:101DB000096821F40001084A443A1160704702465C
:101DC000002013680B420BD001200AE000DCFEBFAC
:101DD000FFFEF0FFFDF7F1FF4C240140FFFD3FFF48
:101DE00000207047CA430260704770B50246002069
:101DF000002300240B125568CEB205EA06041568CC
:101E00001D4202D00CB1012000E0002070BD002274
:101E10000A12D34303607047016821F00101016099
:101E20000021016041608160C160864A811A904250
:101E30005BD012DC844AA0EB020190423AD007DC6E
:101E4000824941181BD0142922D028297AD128E0B0
:101E5000142938D0282975D13EE0B1F56C7F5BD0CC
:101E600006DCB1F5627F49D0B1F5677F6AD14CE0FD
:101E7000B1F5717F57D0B1F5767F63D15BE07249E0
:101E80004439496841F00F016F4A443A51605AE0C1
:101E90006D494439496841F0F0016B4A443A516058
:101EA00051E069494439496841F47061664A443AED
:101EB000516048E064494439496841F47041624ADC
:101EC000443A51603FE060494439496841F4702127
:101ED0005D4A443A516036E05B494439496841F40F
:101EE0007001594A443A51602DE0574944394968D4
:101EF00041F07061544A443A516024E05449096801
:101F000041F00F01524A11601DE05149096841F04A
:101F1000F0014F4A116016E04D49096841F47061C3
:101F20004B4A11600FE04A49096841F47041484A40
:101F3000116008E006E04649096841F47021444A0E
:101F4000116000E000BF00BF704710B500220268BA
:101F500047F6F0739A430C6A8B6823430C6923435A
:101F60004C6923438C692343CC6923434C6A234344
:101F70008C6A23431A430260CB6843600B6883601A
:101F80004B68C36010BD0021016041608160C16089
:101F9000016141618161C161016241628162704799
:101FA00021B1026842F00102026003E0026822F0FF
:101FB0000102026070471AB103680B43036002E03C
:101FC00003688B43036070470146486880B27047DE
:101FD00001460020002211F0805F03D01C4B1B1F24
:101FE0001A6802E0184B443B1A680A4201D00120EB
:101FF00000E00020704710F0805F02D014490860B4
:1020000002E011494439486070470146002000222F
:1020100011F0805F03D00E4B1B1F1A6802E00A4BC1
:10202000443B1A680A4201D0012000E000207047BA
:1020300010F0805F02D00649086002E0024944398E
:10204000486070478000024044000240F8FFFDBF36
:102050000404024010B50446C549601A8C422FD0D2
:1020600009DCC448201810D0B0F5806F16D0B0F548
:10207000006F4AD11BE0B0F5806F2AD0B0F5006F39
:1020800030D0B0F5406F40D135E00121042000F0A0
:1020900045FB0021042000F041FB37E0012108202E
:1020A00000F03CFB0021082000F038FB2EE001216D
:1020B000102000F033FB0021102000F02FFB25E062
:1020C0000121202000F02AFB0021202000F026FB27
:1020D0001CE00121402000F021FB0021402000F005
:1020E0001DFB13E00121802000F018FB002180205F
:1020F00000F014FB0AE00121080200F00FFB0021B0
:102100004FF4807000F00AFB00E000BF00BF10BD7C
:1021100010B50121084600F001FB0021012000F06C
:10212000FDFA10BD2DE9F0410246002500260020F1
:1021300000230024002791F803C00CF00F0591F84C
:1021400003C01CF0100F03D091F802C04CEA050543
:1021500091F800C0BCF1000F31D0146800202BE0D2
:102160004FF0010C0CFA00F3B1F800C00CEA0306C2
:102170009E4220D183004FF00F0C0CFA03F7BC43B2
:1021800005FA03FC4CEA040491F803C0BCF1280FE3
:1021900006D14FF0010C0CFA00FCC2F814C00AE0A2
:1021A00091F803C0BCF1480F05D14FF0010C0CFAB7
:1021B00000FCC2F810C0401C0828D1D31460B1F84C
:1021C00000C0BCF1FF0F34DD546800202EE000F1A8
:1021D000080C4FF0010808FA0CF3B1F800C00CEA43
:1021E00003069E4221D183004FF00F0C0CFA03F737
:1021F000BC4305FA03FC4CEA040491F803C0BCF1AB
:10220000280F05D100F1080C08FA0CF8C2F8148068
:1022100091F803C0BCF1480F07D100F1080C4FF052
:10222000010808FA0CF8C2F81080401C0828CED328
:102230005460BDE8F0814FF6FF710180022181708A
:102240000421C17070470246002093680B4201D000
:10225000012000E0002070470146886880B2704786
:1022600002460020D3680B4201D0012000E000208C
:1022700070470146C86880B270470161704741618C
:1022800070470AB1016100E041617047C160704769
:102290004FF480320A43826181618261826982697E
:1022A000704702460020344B18684FF68073184080
:1022B00040EA02100843304B186070472F49C8614C
:1022C0007047F0B50A4600230024002100252A4E5D
:1022D0007168C0F3034583B200F44016B6F5401FA1
:1022E00008D121F07061244E766826F07066224F86
:1022F0007E6012E000F48016B6F5801F06D103263A
:1023000006FA05F4A14341F0706106E0460D36017E
:1023100003FA06F6B14341F0706122B1460D360171
:1023200003FA06F63143144E7160F0BD30B5002259
:102330008B071C0F0F2303FA04F20F4B08338C108A
:1023400053F8243093430C4C08348D1044F8253056
:1023500023468C1053F824308C07240F00FA04F421
:102360002343054C08348D1044F8253030BD00005F
:102370000014014000F8FEBF0000014000002042B0
:10238000704700BFFEE700BFFEE700BFFEE700BFEB
:10239000FEE7704770477047704710B50121880706
:1023A00000F0D9FF50B30121880700F0E5FF144881
:1023B0000068401C1249086012480068401C11491E
:1023C000086011480068401C0F4908600F48006809
:1023D000401C0E4908600E480068401C0C4908600B
:1023E0000C480068401C0B4908600846006840F231
:1023F000B241884202D308460649086010BD000079
:1024000024020020280200202C020020300200209C
:102410003402002038020020DC48006840F001004F
:10242000DA49086008464068D9490840D7494860F9
:1024300008460068D7490840D44908600846006843
:1024400020F4802008600846406820F4FE004860C0
:10245000002088607047CD49096821F48031CB4A5B
:1024600011601146096821F480211160B0F5803FA8
:1024700003D0B0F5802F0ED106E0C449096841F4BD
:102480008031C24A116007E0C049096841F4A021C7
:10249000BE4A116000E000BF00BF704710B50146A2
:1024A0000022002300204A11012A02D1B74C2368E0
:1024B00006E0022A02D1B54C236A01E0B34C636AFC
:1024C00001F01F02012494401C4201D0012000E0D1
:1024D000002010BD38B5002000900024002500BF6A
:1024E0003120FFF7DBFF05460098401C00901DB926
:1024F0000098B0F5A06FF3D13120FFF7CFFF08B1FE
:10250000012400E00024204638BD014600209F4AF7
:10251000106820F0F80040EAC100106070479E4942
:102520000860704702460020984B586820F47C10E1
:1025300042EA01031843954B586070479649086674
:10254000704701460020914A506820F0030008437C
:10255000506070478D48406800F00C00704701469D
:1025600000208A4A506820F0F0000843506070470D
:1025700001460020854A506820F4E060084350601E
:10258000704701460020814A506820F4605040EABC
:10259000C1005060704729B17C4A527A02437B4B9C
:1025A0005A7204E0794A527A8243784B5A727047E1
:1025B0007A490860704701460020744A506820F448
:1025C00040400843506070470021754A11706F4ABF
:1025D00082F82010012802D0042808D103E001214C
:1025E0006F4A117004E005216D4A117000E000BFD0
:1025F00000BF70476B49086070476449096A01432E
:10260000624A11627047674944390860704730B5C3
:1026100000210022002400235C4D6D6805F00C01B0
:1026200021B1042905D0082923D105E05E4D0560BC
:1026300022E05D4D05601FE0544D6D6805F4701299
:10264000022505EB9242514D6D6805F480341CB9AA
:10265000564D554305600BE04C4D6D6815F4003F39
:1026600003D0524D5543056002E04F4D5543056080
:1026700002E04D4D056000BF00BF444D6D6805F0A0
:10268000F00109094A4D6B5C0568DD4045603F4D2E
:102690006D6805F4E061090A454D6B5C4568DD40F5
:1026A00085603A4D6D6805F46051C90A404D6B5C18
:1026B0004568DD40C560354D6D6805F44041890BC6
:1026C0003C4D6B5CC568B5FBF3F5056130BD29B1C8
:1026D0002E4A526902432D4B5A6104E02B4A52693B
:1026E00082432A4B5A61704729B1284A92690243B2
:1026F000264B9A6104E0254A92698243234B9A61F2
:10270000704729B1214AD2690243204BDA6104E0C3
:102710001E4AD26982431D4BDA61704729B11B4AB8
:10272000D2680243194BDA6004E0184AD268824347
:10273000164BDA60704729B1144A12690243134BF1
:102740001A6104E0114A12698243104B1A61704702
:1027500014494039086070470F49C86470470B49F5
:10276000C87170470948406A40F080700749486264
:10277000704701460020054A92680A4201D00120B4
:1027800000E0002070470149887270470010024045
:102790000000FFF8FFFFF6FE00004242D800424270
:1027A000201002408004424200127A0000093D00DD
:1027B0003C0200204C02002010B50446F749601A84
:1027C0008C4245D00CDCB4F1804F1DD0F448201869
:1027D00023D0B0F5806F29D0B0F5006F54D12EE032
:1027E000B0F5806F3DD0B0F58E3F03D0B0F5923F8D
:1027F0004AD13FE00121C802FFF790FF00214FF4CA
:102800000060FFF78BFF40E001210846FFF793FFD0
:1028100000210120FFF78FFF37E001210220FFF7A1
:102820008AFF00210220FFF786FF2EE0012104200D
:10283000FFF781FF00210420FFF77DFF25E0012144
:102840000820FFF778FF00210820FFF774FF1CE045
:1028500001211020FFF76FFF00211020FFF76BFF11
:1028600013E001212020FFF766FF00212020FFF761
:1028700062FF0AE001214803FFF750FF00214FF4F7
:102880000050FFF74BFF00E000BF00BF10BD028803
:1028900002F08F020280CA884B881A4303881A43C9
:1028A00002808A8882850A880285BE4A904202D0C8
:1028B000BD4A904201D10A7A028601228282704783
:1028C00070B5002400220023058C4FF6FE763540BB
:1028D0000584028C8388048B4FF68F752C400D88FD
:1028E0002C43751E2A400D892A434D882A43CD88E2
:1028F0008586AC4DA84202D0AB4DA84213D14FF60D
:10290000F7752A404D892A434FF6FB752A408D887A
:102910002A4347F6FF652B4047F6FF552B408D892C
:102920002B43CD892B4383800483028470BD70B513
:10293000002400220023058C4FF6EF7635400584F5
:10294000028C8388048B48F6FF752C400D884FF667
:10295000FF7606EA05252C434FF6DF752A400D89E0
:1029600006EA05152A434D8806EA05152A43CD884F
:1029700005878C4DA84202D08B4DA8421DD14FF641
:102980007F752A404D894FF6FF7606EA05152A43E2
:102990004FF6BF752A408D8806EA05152A4347F68B
:1029A000FF352B4047F2FF752B408D8906EA8505E0
:1029B0002B43CD8906EA85052B438380048302845B
:1029C00070BD70B5002400220023058C4FF6FF6611
:1029D00035400584028C8388848B4FF68F752C409C
:1029E0000D882C434FF6FF552A400D894FF6FF7690
:1029F00006EA05252A434D8806EA05252A43CD889F
:102A00008587684DA84202D0674DA8421DD14FF27C
:102A1000FF752A404D894FF6FF7606EA05252A43C1
:102A20004FF6FF352A408D8806EA05252A4346F6EB
:102A3000FF752B4045F6FF752B408D8906EA05157D
:102A40002B43CD8906EA05152B43838084830284BA
:102A500070BD70B5002400220023058C4EF6FF7671
:102A600035400584028C8388848B48F6FF752C40A2
:102A70000D884FF6FF7606EA05252C434DF6FF75C7
:102A80002A400D8906EA05352A434D8806EA0535B0
:102A90002A43CD88A0F84050424DA84202D0424D72
:102AA000A84207D1C3F30D038D894FF6FF7606EADE
:102AB00085152B4383808483028470BD828B4FF203
:102AC000FF331A408283828B4FF6FF7303EA0123A0
:102AD0001A4382837047F0B50C4615460021002248
:102AE0000026078C4EF6FF7C07EA0C070784818BD3
:102AF000028C4FF6FF7707EA043640F6FF4739406D
:102B00004FF6FF7707EA05274FF6FF7C0CEA033CF8
:102B100047EA0C0739434DF6FF773A4046F48057B1
:102B20003A4381830284F0BD828B4FF6F3731A40DF
:102B30008283828B0A4382837047F0B50C46154628
:102B4000002100220026078C4FF6FF6C07EA0C07D5
:102B50000784818B028C4FF6FF7707EA04264FF635
:102B60000C7739404FF6FF7707EA03172F433943B5
:102B70004FF6FF573A4046F480773A438183028408
:102B8000F0BD028B4FF2FF331A400283028B4FF6E7
:102B9000FF7303EA01231A430283704700100040C9
:102BA00000FCFFBF002C014000340140F0B50C4692
:102BB0001546002100220026078C4FF6EF7C07EA1D
:102BC0000C070784018B028C4FF6FF7707EA041687
:102BD00040F6FF4739404FF6FF7707EA033739439E
:102BE0004FF6FF7707EA052739434FF6DF773A407C
:102BF00046F010073A4301830284F0BD028B4FF682
:102C0000F3731A400283028B0A4302837047F0B5C4
:102C10000C46154600210022068C4FF6FE773E40FA
:102C20000684018B028C4FF60C7631407E1C06EA3E
:102C300003162E4331437E1E324044F001063243D8
:102C400001830284F0BD70B505460C46208850B95A
:102C50002389A28861882846FFF7D9FFE1882846A2
:102C6000FFF7CCFF25E0208804280AD12389A28819
:102C700061882846FFF79AFFE1882846FFF781FF21
:102C800017E0208808280AD12389A288618828466D
:102C9000FFF753FFE1882846FFF746FF09E0238945
:102CA000A28861882846FFF716FFE1882846FFF7CB
:102CB00005FF70BD2DE9F04105460C4600260127B1
:102CC000608808B9022600E00026A088012801D10A
:102CD000022700E001272088A0B92389A288618803
:102CE0002846FFF794FFE1882846FFF787FF2389EE
:102CF0003A4631462846FFF759FFE1882846FFF754
:102D000040FF13E02389A28861882846FFF74EFF21
:102D1000E1882846FFF735FF23893A4631462846A1
:102D2000FFF775FFE1882846FFF768FFBDE8F081EF
:102D30000A884B881A438B881A43CB881A430B891D
:102D40001A434B891A438B891A43A0F844207047D1
:102D50004FF6FF71818000210180C18041800172A6
:102D600070470021018041808180C18001814181C3
:102D70008181C181704700210180418001218180D2
:102D80000021C18001817047002101804180818044
:102D9000C180018141818181704721B1028842F067
:102DA0000102028004E0028840F2FE331A400280F1
:102DB000704731B1B0F8442042F40042A0F84420FA
:102DC00005E0B0F84420C2F30E02A0F8442070479A
:102DD0001AB183890B43838102E083898B4383810A
:102DE00070478182704741EA0203A0F8483070477B
:102DF0001AB183890B43838102E083898B438381EA
:102E0000704701894FF6F8721140018170470A46F8
:102E1000002101894FF68F731940114301817047DA
:102E200030B504460D4629462046FFF7F0FF2089BD
:102E300040F00700208130BD2DE9F04104460D46E9
:102E400016461F46602D06D13B46012231462046DC
:102E5000FFF7ACFE05E03B46012231462046FFF776
:102E6000D6FE29462046FFF7D2FF208940F0070012
:102E70002081BDE8F08170B50C4600210189C9B2FE
:102E800044EA02054FF6FF7606EA03263543294356
:102E9000018170BD2DE9F04105460E461746984662
:102EA000002443463A4631462846FFF7E4FF2C8982
:102EB0004FF6F870044044F007044FF68F7004405A
:102EC00044F070042C81BDE8F081F0B504460D4655
:102ED00016461F463B46324629462046FFF7CBFFA3
:102EE000208940F480402081F0BD018582827047B6
:102EF0000A460021018840F28F33194011430180B6
:102F00007047F0B50C4615461E46002100220023EE
:102F10000189028B038C4FF6F877394021434FF635
:102F2000FC473A4040F201173A434FF6DD773B4009
:102F30004FF6FF7707EA06172F433B4301810283D1
:102F40000384F0BD0A460021018B4FF68F731940B0
:102F50001143018370470A460021018B48F6FF7335
:102F600019404FF6FF7303EA0223194301837047A8
:102F70000A460021818B4FF68F73194011438183DC
:102F800070470A460021818B48F6FF7319404FF6BF
:102F9000FF7303EA022319438183704721B102883A
:102FA00042F08002028004E0028840F27F331A403F
:102FB0000280704721B1828842F00402828004E0DE
:102FC00082884FF6FB731A408280704721B1828855
:102FD00042F00802828004E082884FF6F7731A40BC
:102FE0008280704721B1828842F00102828004E031
:102FF00082884FF6FE731A40828070470A4600218D
:10300000018B4FF6F77319401143018370470A464D
:103010000021018B4FF2FF7319404FF6FF7303EA53
:1030200002231943018370470A460021818B4FF622
:10303000F77319401143818370470A460021818B41
:103040004FF2FF7319404FF6FF7303EA022319434F
:10305000818370470A460021018B4FF6FB731940AC
:103060001143018370470A460021018B4FF6FF335D
:1030700019404FF6FF7303EA022319430183704797
:103080000A460021818B4FF6FB731940114381835F
:1030900070470A460021818B4FF6FF3319404FF6E7
:1030A000FF7303EA02231943818370470A46002114
:1030B000018B4FF67F7319401143018370470A4615
:1030C0000021018BC1F30E014FF6FF7303EA0223C7
:1030D0001943018370470A460021818B4FF67F73A5
:1030E00019401143818370470A460021818BC1F347
:1030F0000E014FF6FF7303EA0223194381837047E1
:103100000A460021018C4FF6FD73194011430184DA
:1031100070470A460021018C4FF6F773194011439E
:10312000018470470A460021018C4FF6DF73194075
:103130004FF6FF7303EA02131943018470470A46EE
:103140000021018C4FF67F7319404FF6FF7303EA9D
:1031500002131943018470470A460021018C4FF67F
:10316000FF5319404FF6FF7303EA0223194301840A
:1031700070470A460021018C4FF2FF7319404FF649
:10318000FF7303EA02231943018470470A460021B2
:10319000018C4DF6FF7319404FF6FF7303EA0233BB
:1031A00019430184704710B5038C01248C40A3435C
:1031B0000384038C02FA01F4A4B22343038410BDF8
:1031C00010B5038C04248C40A3430384038C02FABF
:1031D00001F4A4B22343038410BD30B5038C012451
:1031E0008C40A343038409B1082918D100F11803C6
:1031F00003EB61031B684FF68F74234000F1180442
:1032000004EB6104236000F1180303EB61031B6806
:10321000134300F1180404EB610423601FE00B1F4B
:10322000C3F34E0400F118031B5948F6FF74234002
:103230000C1FC4F34E0500F1180463510B1FC3F3B8
:103240004E0400F118031B594FF6FF7404EA0224E0
:1032500023430C1FC4F34E0500F11804635130BD25
:1032600021B1028842F00202028004E0028840F2AA
:10327000FD331A400280704721B1028842F00402F7
:10328000028004E0028840F2FB331A40028070475B
:1032900021B1828842F08002828004E082884FF669
:1032A0007F731A4082807047028840F2F7331A40D9
:1032B000028002880A430280704782884FF68F732B
:1032C0001A40828082880A438280704702894FF6C2
:1032D000F8731A40028102890A4302817047028909
:1032E0004FF67F731A40028102890A4302817047B8
:1032F0008184704781857047818670470187704758
:1033000081877047A0F8401070470288D2B20280CF
:1033100002880A43028070470146888E7047014642
:10332000088F70470146888F70470146B1F840000A
:1033300070470146888C70470146088D70470246E9
:103340000020138A0B4201D0012000E000207047CA
:10335000CA430282704730B5024600200023002491
:10336000158A05EA0103958905EA010413B10CB138
:10337000012000E0002030BDCA43028270470000F7
:10338000174908601749096841F08071154A1160B2
:103390001549096841F00101134A1160704730B5C1
:1033A0000246114843680E480068104DB0FBF5F026
:1033B00000FB02F41919994205D900BF0A48406878
:1033C0008842FBD309E000BF074840688842FBD829
:1033D00000BF054840688842FBD3012030BD000093
:1033E00050020020FCED00E0001000E040420F0021
:1033F00010B50446F748006820F02000F549086041
:103400000846006840F0200008600846006820F088
:10341000400008600846006840F040000860012055
:10342000FFF7BDFFEB48001F006820F08000E9496E
:10343000091F08600846006840F08000086001200D
:10344000FFF7ADFFE34808380068C0B2E14908392A
:1034500008600846006840EA042008604FF448709D
:10346000FFF79DFFDB48006820F08000D949086025
:103470000846006840F080000860081F006820F0DF
:103480004000091F08600846006840F040000860DE
:103490000120FFF784FF10BD10B5CE48103800683A
:1034A00020F04050CB49103908600846006820F0F1
:1034B000404008600120FFF772FFC648006820F016
:1034C0002000C44908600846006840F020000860F9
:1034D000081F006820F04000091F086008460068C7
:1034E00040F0400008600120FFF759FF00BFB948D5
:1034F000006820F08000B74908600846006840F086
:10350000800008604FF4FA70FFF749FFB148001FD0
:10351000006820F08000AF49091F08600846006875
:1035200040F0800008604FF4FA70FFF738FFA948B8
:103530000C38006800F40040A7490880084600885D
:103540000028D4D1A3481038006840F04050A14969
:10355000103908600846006808600120FFF71FFF67
:1035600010BD10B50446FFF797FF9A48006820F099
:103570002000984908600846006840F02000086074
:103580000846006820F0400008600846006840F0E7
:10359000400008600120FFF702FF8E48001F00680E
:1035A00020F080008B49091F08600846006840F041
:1035B000800008600120FFF7F2FE864808380068A6
:1035C000C0B28449083908600846006840EA04200F
:1035D00008604FF44870FFF7E2FE7E48006820F074
:1035E00080007C4908600846006840F08000086060
:1035F000081F006820F04000091F086008460068A6
:1036000040F0400008600120FFF7C9FE10BD10B572
:103610000446FFF741FF6F48001F006820F02000BC
:103620006C49091F08600846006840F020000860E7
:10363000081D006820F04000091D08600846006869
:1036400040F0400008600120FFF7A9FE6148001F1C
:10365000006820F080005F49091F08600846006884
:1036600040F0800008600120FFF799FE59480838B3
:103670000068C0B25749083908600846006840EA47
:10368000042008604FF44870FFF789FE5148006835
:1036900020F080004F4908600846006840F0800034
:1036A0000860081F006820F04000091F08600846F5
:1036B000006840F0400008600120FFF770FE4548B8
:1036C00008380068C0B243490839086008460068F5
:1036D000086010BD10B504462046FFF742FF10BD3C
:1036E00070B505460E460024681C032800DD08243A
:1036F00015F0010F02D044F0800401E044F0900482
:10370000701E204484B22046FFF72BFF70BD10B519
:1037100004462046FFF77BFF10BD70B505460E46F8
:10372000144631462846FFF7DBFF2046FFF76FFFC0
:1037300070BD10B50446002028490880088009E0C3
:1037400026490988605CFFF762FF24480088401C16
:103750002249088021480088205C0028F0D110BD53
:1037600070B505460E46144631462846FFF7B8FFA9
:103770002046FFF7DEFF70BD2DE9FE4304461848E2
:10378000844201D308251DE01648844201D3072551
:1037900018E01548844201D3062513E042F2107068
:1037A000844201D305250DE0B4F57A7F01D30425C9
:1037B00008E0642C01D3032504E00A2C01D3022580
:1037C00000E001254FF000082E4628E00127B94609
:1037D00013E00000140C01405402002056020020A7
:1037E0008096980040420F00A086010007EB8700FA
:1037F000470009F101001FFA80F9B145F6DBB4FB7F
:10380000F7F03030C2B24046411C1FFA81F80DF883
:103810000020B4FBF7F007FB1044701E86B2002EA8
:10382000D4DC00200DF808006846FFF782FFBDE8F1
:10383000FE8370B505460E46144631462846FFF70E
:103840004FFF2046FFF798FF70BD3EB504460D467A
:103850000020FE490860FE490860FE490860FE49F4
:103860000860FE490860FE48844203D30820FA49F4
:1038700008602BE0FB48844203D30720F649086028
:1038800024E0F948844203D30620F34908601DE090
:1038900042F21070844203D30520EF49086015E01E
:1038A000B4F57A7F03D30420EB4908600EE0642C62
:1038B00003D30320E849086008E00A2C03D3022060
:1038C000E549086002E00120E3490860E248006839
:1038D000DE49086030E00120E0490860DC4908600A
:1038E0000BE0DE48006800EB80004000DB49086028
:1038F000D7480068401CD6490860D5480068D349BD
:1039000009688842EDD3D5480068B4FBF0F0303048
:10391000C1B2D04802680068401CCE4B18600DF858
:103920000210CE480068B4FBF0F100FB1144C74818
:103930000068401EC5490860C44800680028CAD114
:103940000820C249086011E0C04909681DF801005B
:10395000302806DBBD4909681DF80100392800DC64
:1039600008E0BA480068401EB8490860B7480068D7
:103970000028E9D100BFB8480068401EB34908607C
:103980000020B349086012E0B04909681DF8011031
:10399000AE480068401C0DF80010AD480068401C9F
:1039A000AB490860A9480068401EA8490860A848BB
:1039B0000068A842E8D32E20A7490968491B0DF8E2
:1039C00001000021A4480068401C0DF80010684662
:1039D000FFF7AFFE3EBD2DE9F04106460F46144607
:1039E0001D4639463046FFF77BFE29462046FFF745
:1039F0002CFFBDE8F0812DE9F04781460C461546C5
:103A00001F46DDE9088600210120FFF769FE97A027
:103A1000FFF78FFE4846FFF7AFFE2D20FFF777FE3A
:103A20002046FFF7A9FE2D20FFF771FE2846FFF77D
:103A3000A3FE0A2C08DA0A2D06DA2020FFF767FE1B
:103A40002020FFF764FE0AE00A2C01DA092D03DCCE
:103A5000092C04DD0A2D02DA2020FFF758FE0F2181
:103A60000120FFF73DFE2A20FFF751FE0021022032
:103A7000FFF736FE7FA0FFF75CFE3846FFF77CFEBF
:103A80003A20FFF744FE4046FFF776FE3A20FFF764
:103A90003EFE3046FFF770FE16B93020FFF737FEC6
:103AA0002020FFF734FE2020FFF731FE0A2F09DA2D
:103AB000B8F10A0F06DA002E04DD0A2E02DA202001
:103AC000FFF725FE0F210220FFF70AFE2A20FFF74D
:103AD0001EFEBDE8F08710B504463420FFF741FD17
:103AE00044F62060FFF75BFC0020644908802BE06F
:103AF00062490988803188B2FFF733FD6048FFF7DB
:103B00004EFC8020FFF72DFD5D48FFF748FC0020AC
:103B10005C4908800CE05B490988605CFFF777FD31
:103B20005748FFF73CFC57480088401C554908801F
:103B3000544800881028EEDB5148FFF730FC4F480E
:103B40000088401C4D4908804C4800882028CFDB65
:103B50003620FFF706FD4CF25030FFF720FC10BD79
:103B600010B51820FFF7FDFC10BD10B51C20FFF7A5
:103B7000F8FC10BD10B50120FFF7F3FC10BD10B527
:103B80000220FFF7EEFC10BD10B50820FFF7E9FC9E
:103B900010BD10B50C20FFF7E4FC10BD70B5044655
:103BA0000D460D20FFF7DDFC29462046FFF798FD66
:103BB00070BD10B50C20FFF7D4FC10BD10B5082067
:103BC000FFF7CFFC3048FFF7EAFB0C20FFF7C9FCFA
:103BD0002D48FFF7E4FB10BD08B501210820FEF7D2
:103BE00083FD01210820FEF77FFD4FF47F40ADF8F3
:103BF000000003208DF8020010208DF803006946B4
:103C00002248FEF78FFABDF8000040F0E100ADF861
:103C1000000003208DF8020010208DF80300694693
:103C20001A48FEF77FFA08BD10B501201749143174
:103C300008601748FFF7B3FB0120144910310860F2
:103C40001348FFF7ACFB302024E0000058020020AE
:103C50005C02002060020020640200206802002054
:103C60008096980040420F00A08601004461746570
:103C70003A00000054696D653A0000006C020020B3
:103C8000F04902006E02002020A10700000C014054
:103C9000E0930400FFF7ACFB0C20FFF7A9FB012029
:103CA000FFF7A6FB0220FFF7A3FB0620FFF7A0FB10
:103CB00010BD00000146088870472DE9F041054617
:103CC0000E461746002407E036F81410284600F088
:103CD000BEFAAD1C601C84B2BC42F5DBBDE8F081CD
:103CE00030B503460C461546002207E01846FFF79C
:103CF000E1FF24F812009B1C501C82B2681F904206
:103D0000F4DC30BD2DE9F05F80468A461746B8F1F5
:103D1000006F02D33348804501D3BDE8F09F00F027
:103D20008CF9A8F1006B4FEADB25CBF34909C9F503
:103D30008064A74200DC3C464DE04FF0006101EB9F
:103D4000C5204A142849FFF7CBFF00260BE009EBFA
:103D50000600254931F81000A0F57F41FF3900D059
:103D600003E0701C86B2A642F1DB00BFA6421BDA5C
:103D70004FF0006101EBC52000F0A6F9002608E035
:103D80003AF8160006EB0901174A22F81100701CD8
:103D900086B2A642F4DB4FF0006101EBC5204A1465
:103DA0001149FFF78AFF04E0224651464046FFF7DB
:103DB00084FFA74200D10FE06D1C4FF000090AEB11
:103DC000440AA044381B87B2B7F5806F02DD4FF478
:103DD000806400E03C46B0E700BF00F034F900BF6B
:103DE0009BE7000000000408400D00201CB54FF4C4
:103DF000E06000F095F81C208DF8040000208DF89C
:103E0000050003208DF8060001208DF8070001A8A9
:103E100000F08BF80B208DF8000001208DF80100D8
:103E200000208DF8020001208DF80300684600F0A4
:103E30007CF81CBD0EB501210846FEF762FC4FF070
:103E40008040FEF7B9FC41F61F40ADF8040040F297
:103E5000E730ADF800000020ADF8020069464FF0F1
:103E60008040FEF714FD01218807FFF771FA012257
:103E700011469007FEF7ACFF01218807FEF78DFF82
:103E800000210120FEF73DFC0EBD00B589B041F2D6
:103E9000883008900121C802FEF726FC42F210701B
:103EA000ADF8180040F60F60ADF814000020ADF832
:103EB0001A00ADF8160005A91848FEF7E8FC7020B6
:103EC000ADF804000120ADF806000420ADF80800AC
:103ED000BDF82000ADF80A000220ADF80C00082063
:103EE000ADF80E004001ADF810000020ADF8120052
:103EF00001A90A48FEF7E4FC08210848FFF77EF80C
:103F000001210648FFF74AF801210448FEF745FF62
:103F100001210248FEF74DFF09B000BD002C014011
:103F200031490143314A1160704770B500210023C7
:103F30000F22C4780CB32D4C246804F4E064C4F55B
:103F4000E064210AC1F10403CA40447804FA03F191
:103F50008478144021430901254C0678A155047842
:103F600004F01F050124AC4005786D114FF0E026E8
:103F700006EB8505C5F8004109E0047804F01F054B
:103F80000124AC401B4D0678761145F8264070BDE3
:103F9000194A0A400243154B1B1F1A60704739B17A
:103FA000124A121D12680243104B1B1D1A6006E0D4
:103FB0000E4A121D126882430C4B1B1D1A6070477B
:103FC000042808D14FF0E021096941F004014FF0C5
:103FD000E022116107E04FF0E021096921F00401BE
:103FE0004FF0E022116170470000FA050CED00E08F
:103FF00000E400E080E100E080FFFF1F01460020B8
:10400000FB4A106800F03800084310607047F84918
:10401000096821F00801F64A116011460968014358
:1040200011607047F249096821F01001F04A1160EF
:1040300011460968014311607047EE48EC49486039
:10404000ED4848607047EA48006940F08000E84960
:10405000086170470420E649C96811F0010F01D0DA
:1040600001200EE0E249C96811F0040F01D00220DE
:1040700007E0DF49C96811F0100F01D0032000E00C
:104080000420704708B500200090FF20009002E057
:104090000098401E009000980028F9D108BD70B526
:1040A00004460425FFF7D6FF054605E0FFF7EAFFC3
:1040B000FFF7D0FF0546641E012D01D1002CF5D17C
:1040C00004B90525284670BD70B50546042440F6A0
:1040D000FF70FFF7E4FF0446042C19D1C4480069BF
:1040E00040F00200C249086108464561006940F09D
:1040F0004000086140F6FF70FFF7D1FF0446012C35
:1041000006D0BB48006941F6FD710840B849086116
:10411000204670BD10B5042440F6FF70FFF7BFFFC6
:104120000446042C18D1B248006940F00400B0499C
:1041300008610846006940F04000086140F6FF70E1
:10414000FFF7ADFF0446012C06D0A948006941F6EF
:10415000FB710840A6490861204610BD10B5042433
:1041600040F6FF70FFF79BFF0446042C3BD1A148AB
:104170009F498860A04888600846006940F0200098
:1041800008610846006940F04000086140F6FF7091
:10419000FFF785FF0446042C1CD19548006941F6C1
:1041A000DF710840924908610846006940F010003C
:1041B0000861A520914908800F20FFF770FF044691
:1041C000012C10D08A48006941F6EF7108408849F7
:1041D000086108E0012C06D08548006941F6EF71BE
:1041E000084083490861204610BD70B505460E465B
:1041F00004240F20FFF753FF0446042C25D17C48EC
:10420000006940F001007A4908612E800F20FFF715
:1042100046FF0446042C0FD1300C68800F20FFF7B6
:104220003EFF0446012C10D07148006941F6FE7132
:1042300008406F49086108E0012C06D06C4800690D
:1042400041F6FE7108406A490861204670BD70B5AC
:1042500005460E4604240F20FFF721FF0446042CD8
:1042600013D16348006940F00100614908612E8064
:104270000F20FFF714FF0446012C06D05C480069AC
:1042800041F6FE7108405A490861204670BD70B57C
:1042900005460E4604240F20FFF701FF0446042CB8
:1042A00017D15448524988605348886008460069CD
:1042B00040F0100008612E800F20FFF7F0FE04464A
:1042C000012C06D04A48006941F6EF710840484980
:1042D0000861204670BD2DE9F04704464FF6FF7691
:1042E0003746B046B1460425E443E6B2C4F3072797
:1042F000C4F307484FEA14690F20FFF7D0FE0546C4
:10430000042D40D13B483A4988603B4888600846C4
:10431000006940F010000861FF2E06D037480830D1
:1043200006800F20FFF7BBFE0546042D08D1FF2FA6
:1043300006D032480A3007800F20FFF7B0FE05464E
:10434000042D0AD1B8F1FF0F07D02C480C30A0F88B
:1043500000800F20FFF7A3FE0546042D0AD1B9F116
:10436000FF0F07D025480E30A0F800900F20FFF770
:1043700096FE0546012D06D01D48006941F6EF71F5
:1043800008401B4908612846BDE8F08770B505461E
:10439000042440F6FF70FFF782FE0446042C4AD145
:1043A000144813498860144888600846006940F042
:1043B000200008610846006940F04000086140F6AE
:1043C000FF70FFF76CFE0446042C2BD108480069EF
:1043D00041F6DF710840064908610846006940F06F
:1043E0001000086165B10020044908800BE000005E
:1043F0000020024023016745AB89EFCD00F8FF1F85
:10440000A5204549088040F6FF70FFF748FE0446A6
:10441000012C10D04148006941F6EF7108403F4936
:10442000086108E0012C06D03C48006941F6DF71C4
:1044300008403A490861204670BD2DE9F041074621
:104440000D4616460424364834498860354888604D
:104450000F20FFF724FE0446042C1AD12F480069D0
:1044600040F010002D49086147EA0500304340F054
:10447000F8002949891C08800F20FFF710FE044628
:10448000012C06D02548006941F6EF710840234908
:1044900008612046BDE8F0812048C0698008704767
:1044A0001E48006A704700201C49C96911F0020FBC
:1044B00001D0012000E00020704700201749096862
:1044C00011F0200F01D0012000E00020704729B139
:1044D000124A12690243114B1A6104E00F4A126931
:1044E00082430E4B1A61704701460020012908D112
:1044F0000A4AD26912F0010F01D0012008E0002021
:1045000006E0064AD2680A4201D0012000E00020FD
:1045100070470249C860704700F8FF1F0020024042
:1045200023016745AB89EFCD032A40F2308010F0BC
:10453000030C00F0158011F8013BBCF1020F62443E
:1045400098BF11F801CB00F8013B38BF11F8013BCF
:10455000A2F1040298BF00F801CB38BF00F8013B7C
:1045600011F0030300F02880083AC0F0088051F8E9
:10457000043B083A51F804CBA0E80810F5E7121DF7
:104580005CBF51F8043B40F8043BAFF30080D20716
:1045900024BF11F8013B11F801CB48BF11F8012BE2
:1045A00024BF00F8013B00F801CB48BF00F8012B05
:1045B000704770477047704710B5203AC0F00B80C5
:1045C000B1E81850203AA0E81850B1E81850A0E817
:1045D0001850BFF4F5AF5FEA027C24BFB1E8185071
:1045E000A0E8185044BF18C918C0BDE810405FEAE1
:1045F000827C24BF51F8043B40F8043B08BF70475D
:10460000D20728BF31F8023B48BF11F8012B28BF61
:1046100020F8023B48BF00F8012B7047754600F0B8
:1046200029F8AE4605006946534620F00700854646
:1046300018B020B5FBF7FEFDBDE820404FF00006A6
:104640004FF000074FF000084FF0000B21F007017A
:10465000AC46ACE8C009ACE8C009ACE8C009ACE8BD
:10466000C0098D4670470446AFF300802046FBF733
:10467000C8FD000000487047401500200048704702
:104680004415002001491820ABBEFEE726000200B9
:10469000704710B5FFF7F2FF4FF00001016010BD49
:1046A000202020202020202020202020202020200A
:1046B00000C7EBB5C8B4FD202020202020202020FA
:1046C0002000202020203330C3EBBAF3202020200C
:1046D00020200020202020CEAAC4FAB7FECEF12050
:1046E0002020200020202020CFE8BDDDD2C7C6F743
:1046F000202020200020202020B1BEBBFACFD6CE23
:10470000AA3A20202000BBB7BEB3CEC2B6C8D0A301
:10471000D5FDD6B5202000D1A1D4F13A202020200B
:1047200020C4A3CABD202000B0B42020BCFCC9E82E
:10473000D6C3C4A3CABD2020002020D7D4B6AFB2B0
:10474000D9D7F7C4A3CABD2020002020CAD6B6AF4F
:10475000B2D9D7F7C4A3CABD2020002020CDE2BF24
:10476000D8B2D9D7F7C4A3CABD2020002020B9A44D
:10477000D7F7C4A3CABDC9E8D6C32020002020B5FE
:10478000C8B4FDCDE2BFD8D0C5BAC5202000B0B4B2
:104790002020BCFCC9E8D6C3CEC2B6C82020002069
:1047A00020B5C8B4FDB0B4BCFCB2D9D7F720200006
:1047B000D7D4B6AFC6F4B6AFC0E4CBAEBBFA2020B8
:1047C00000B5CDCEC2CBAEC1F7C1BFD2ECB3A30012
:1047D000B8DFCEC2CBAEC1F7C1BFD2ECB3A300BB32
:1047E000B7BEB3CEC2B6C8D2ECB3A300B5E7D4B45B
:1047F000CFE0D0F2D2ECB3A300D7D4B6AF00CAD684
:10480000B6AF00B5CDCEC2CBAECEC2B6C8D0A3D562
:10481000FDD6B500B8DFCEC2CBAECEC2B6C8D0A3EF
:10482000D5FDD6B500B5CDCEC2CBAE2020CEC2B61A
:10483000C8C9E8D6C300B8DFCEC2CBAE2020CEC2F6
:10484000B6C8C9E8D6C300CFC2CFDEB1A8BEAFCECE
:10485000C2B6C8C9E8D6C300C9CFCFDEB1A8BEAFC3
:10486000CEC2B6C8C9E8D6C300D2BACEBBB9FDB570
:10487000CD00CAD6B6AFC4A3CABDD5FDB3A3D4CBB1
:10488000D0D000CDE2BFD800B5CDCEC2CBAEB1C343
:10489000B9FDD4D800B8DFCEC2CBAEB1C3B9FDD418
:1048A000D800D1B9CBF5BBFAB9FDD4D800CBAECE88
:1048B000C2B5CDD3DACFC2CFDE00CBAECEC2B8DF29
:1048C000D3DAC9CFCFDE00B2EED6B5CEC2B6C8A31A
:1048D000BA20202020A1E600D4A4C9E8CEC2B6C8E0
:1048E000A3BA20202020A1E600D0A3D5FDCEC2B6D9
:1048F000C8A3BA20202020A1E600D0A3D5FDB2CEC7
:10490000CAFDA3BA20202020A1E600B5CDCEC2CB9F
:10491000AE3A20202020202032A1E600BBB7BEB353
:10492000CEC2B6C8A3BA20202032A1E600B5CDCEB3
:10493000C2CBAE3A20202020203232A1E600BBB705
:10494000BEB3CEC2B6C83A2020203234A1E600B8A9
:10495000DFCEC2CBAE3A20202020203238A1E600A4
:10496000D5FDD4DABDF8D0D0B7C0B6B3B4A6C0ED8B
:1049700000B5CDCEC2CBAEB6D4B1C8CEC2B6C8B2E9
:10498000EE00B8DFCEC2CBAEB6D4B1C8CEC2B6C888
:10499000B2EE0000B44900080000002074020000DC
:1049A0006C010008B84A0008740200202C150000B1
:1049B000C801000851220132DC1A180832641AC2F8
:1049C00008321429048122081420B0034220320A3C
:1049D00013A0461408FE471B08F9041383481B085C
:1049E000EC081AA2081A69041AD00C1AC1041A9504
:1049F0000C1A88041ADF0C1ABA081AAD0429381ADE
:104A0000E4041AD304290C411360491B08B10C1AA1
:104A10000B081A1C04411AF5101A4A381A9F046927
:104A20002829141A39101AC2081AB00869141A5B16
:104A30000C9A7D281A3E441A2D041A4F041A7274D7
:104A400013B1071B086C201A17045A2828135F0893
:104A50001B08251C1AD8045A8E141A8B140A1136F6
:104A6000140A1147140A1158141A7170DAC7140A7B
:104A70001182141A03101AE9045AFA1829140A1197
:104A800014141A0608E9140114F2019A6404E924C2
:104A900032DC1A180D291C1AC20832142904091E06
:104AA0004001182D01020304040808130607080931
:084AB000020406A00110000041
:0400000508000213DA
:00000001FF
